S016000061746D656761333275342D7573622E737265631A
S11300009BC00000B5C00000B3C00000B1C0000038
S1130010AFC00000ADC00000ABC00000A9C000002C
S1130020A7C00000A5C0000001C50000C4C50000B1
S11300309FC000009DC000009BC0000099C000004C
S113004097C0000095C0000093C0000091C000005C
S11300508FC000008DC000008BC0000089C000006C
S113006087C0000085C0000083C0000081C000007C
S11300707FC000007DC000007BC0000079C000008C
S113008077C0000075C0000073C0000071C000009C
S11300906FC000006DC000006BC0000069C00000AC
S11300A067C0000065C0000063C000001C034C0072
S11300B05500460041002000430044004300200056
S11300C0440065006D006F000000180344006500E3
S11300D061006E002000430061006D006500720045
S11300E0610000000403090409023E00020100C08B
S11300F03209040000010202010005240010010479
S11301002402060524060001070582030800FF09EE
S1130110040100020A00000007050402100005079C
S11301200583021000051201100102000008EB0310
S1130130442001000102DC0111241FBECFEFDAE0EC
S1130140DEBFCDBF11E0A0E0B1E0ECE8F9E102C010
S113015005900D92A033B107D9F721E0A0E3B1E0F7
S113016001C01D92AF34B207E1F723D70C94C40C3D
S113017047CF292F33272230310559F02330310559
S113018069F02130310521F582E190E026E231E089
S113019028C08EE390E028EE30E023C09927813018
S11301A0910551F018F0029769F017C0E4EEF0E001
S11301B0849190E09F0115C0EAECF0E0849190E016
S11301C09F010FC0ECEAF0E0849190E09F0109C028
S11301D080E090E020E030E004C080E090E020E0A7
S11301E030E0FA01318320830895CF93DF93EC014B
S11301F0FC0170968BE0DF011D928A95E9F782E09D
S11302008C83898783E08E8761E0CE010196FCD2DE
S1130210882351F061E0CE010696F6D2882321F0BE
S113022061E0CE010B96F0D2DF91CF910895CF9388
S1130230FC01909142019430E9F484899589A6895E
S1130240B789892B8A2B8B2BB9F0C62F81818F70AC
S11302508093E9008091E80085FD08C0E8EEF0E0B5
S113026080818E77808343D3811107C0C093F100CE
S113027080E003C082E001C082E0CF910895FB01D9
S1130280682F84859585D3DF21E030E0811102C099
S113029020E030E088279927821B930B0895FC0106
S11302A090914201943029F584899589A689B7896A
S11302B0892B8A2B8B2BF9F081818F708093E90035
S11302C02091F3008091F20090E0922B892BA9F009
S11302D0E8EEF0E0908180818E77808395FD0FC0F9
S11302E006D381110DC0E8EEF0E090819E779083F3
S11302F0089582E0089582E0089580E0089580E002
S11303000895FC0190914201943091F48489958977
S1130310A689B789892B8A2B8B2B51F081818F7009
S11303208093E9008091E80080FF02C0CF01B7CF3D
S1130330089520914201243079F5FC0144895589BE
S113034066897789452B462B472B49F186818F7027
S11303508093E9008091E80082FF24C02091F3009B
S11303608091F20090E0922B892B21F02091F100F2
S113037030E002C02FEF3FEF4091F3008091F20094
S113038090E0942B892B89F4E8EEF0E080818B7760
S11303908083822F932F08958FEF9FEF08958FEF1F
S11303A09FEF08958FEF9FEF0895822F932F089565
S11303B0FC0184859585BDDF992314F48EEF9FEFAE
S11303C00895FB012EE0DB011D922A95E9F723E055
S11303D023832FE331E03187208728ED31E0338711
S11303E022879587848708950895CF93DF93FC012E
S11303F09091E80093FF96C0208130E080914701FE
S1130400909148018217930709F08CC0EF01809105
S11304104401813259F018F48032B9F183C0823238
S113042009F45FC0833209F46FC07CC0809143013A
S1130430813A09F077C0E8EEF0E08081877F80831D
S1130440808180FFFDCF8C899D89AE89BF89E1EFD2
S1130450F0E08083492F5A2F6B2F77274083AD011B
S11304606627772740838B2F9927AA27BB2780836A
S1130470888D8083898D80838A8D8083E8EEF0E087
S113048080818E7780830FD24DC080914301813269
S113049009F048C0E8EEF0E08081877F808305C0E2
S11304A080914201882309F43DC0808182FFF8CF06
S11304B0E1EFF0E030812081908180813C8B2D8BB5
S11304C09E8B8F8B8081888F8081898F80818A8F9A
S11304D0E8EEF0E080818B778083E5D1CE0184DF84
S11304E021C0809143018132E9F4E8EEF0E080819B
S11304F0877F8083D8D18091450190914601998B63
S1130500888BCE0171DF0EC080914301813251F49A
S1130510E8EEF0E08081877F8083C5D1609145015A
S1130520CE0162DFDF91CF910895CF92DF92FF92E7
S11305300F931F93CF93DF932091490130914A0188
S11305402617370758F06115710539F4E8EEF0E025
S113055020812E7720839B0101C09B01A82FB92FF6
S113056010E0E8EEF0E063EF70E042EF50E00F2EB1
S1130570F1EFCF2ED12CF02D01E0F12C30C0809181
S11305804201882309F442C0853009F441C08081C6
S113059083FD40C0808182FD32C0808180FF1FC006
S11305A0EB011881EA01888190E0912B2115310536
S11305B079F08830910560F41D91E601188321508B
S11305C0310901962115310519F088309105A1F7FB
S11305D0102F089709F01F2D80818E7780832115B5
S11305E0310569F61111CBCF0AC0809142018823ED
S11305F099F0853099F0808183FF03C011C0E8EE43
S1130600F0E0808182FFF1CF80E00BC082E009C07E
S113061083E007C081E005C082E003C083E001C03D
S113062081E0DF91CF911F910F91FF90DF90CF90E8
S11306300895CF92DF92FF920F931F93CF93DF938E
S11306402091490130914A012617370758F0611566
S1130650710539F4E8EEF0E020812E7720839B01C8
S113066001C09B01E82FF92F10E0A8EEB0E063EF82
S113067070E042EF50E00F2EF1EFCF2ED12CF02D91
S113068001E0F12C31C080914201882309F443C078
S1130690853009F442C08C9183FD41C08C9182FD68
S11306A033C08C9180FF20C0EB011881EA0188815E
S11306B090E0912B2115310581F08830910568F483
S11306C01491E601188331962150310901962115C0
S11306D0310519F08830910599F7102F089709F022
S11306E01F2D8C918E778C932115310561F6111194
S11306F0CACF0AC080914201882399F0853099F0CD
S1130700808183FF03C011C0E8EEF0E0808182FFA6
S1130710F1CF80E00BC082E009C083E007C081E034
S113072005C082E003C083E001C081E0DF91CF9186
S11307301F910F91FF90DF90CF9008958F929F9219
S1130740BF92CF92DF92EF92FF920F931F93CF93BA
S1130750DF93873070F126C0292F2F70E70128839B
S1130760891731F0E80178812081E401588103C0C0
S1130770242F762F5B2D21FF12C03C913E7F3C93AA
S113078030813D7F30833C9131603C93E801788334
S11307902083E4015883E6012881222344F49F5FE7
S11307A09730D1F68F708093E90081E021C080E01A
S11307B01FC0982F9F709093E900982F242F762FB5
S11307C050E0ABEEB0E0EDEEF0E00CEE10E00F2EFA
S11307D0F0EF8F2E912CF02D0F2EFEEECF2ED12C7C
S11307E0F02D0F2EF9EEEF2EF12CF02DB12CC3CFFE
S11307F0DF91CF911F910F91FF90EF90DF90CF90F9
S1130800BF909F908F900895EF92FF920F931F9344
S1130810CF93DF936623E9F1062FC82FD92F10E079
S11308200F2EF6E0FF2EF02D6894EE24E1F85881A7
S1130830552349F19C81E981FA816B81852F8F7061
S1130840873048F5923010F44E2D01C04F2DE93019
S1130850F10550F028E030E090E09F5F220F331F55
S11308602E173F07D0F301C090E09295907F492B5B
S113087090E4699FB0011124551F5527551F652B1E
S11308805DDF882349F01F5F25960113D0CF81E0F7
S113089003C081E001C080E0DF91CF911F910F91EF
S11308A0FF90EF90089580914301882344F0E8EE8F
S11308B0F0E014C080914201811103C00895E8EE74
S11308C0F0E0808182FFF6CFE8EEF0E080818B7764
S11308D08083089580914201882341F0808180FFC4
S11308E0F9CFE8EEF0E080818E77808308950F934E
S11308F01F93CF93DF932091E4003091E50065E6E8
S1130900ACEEB0E0E8EEF0E00BEE10E044EE50E0C8
S113091001C09C019C91892F817090FD1DC020C055
S113092080914201882381F0853081F0E80188813B
S113093085FD0EC0EA01888199812817390751F392
S1130940615039F784E00FC082E00DC083E00BC032
S113095081E009C080E007C0808180FFE1CFFACF49
S1130960908192FFDDCFDF91CF911F910F91089578
S11309700F931F93CF93DF934CD053D0C8EDD0E0A7
S113098088818F77888388818068888388818F7D38
S1130990888319BC1092420110923E0110924001CA
S11309A010923F0100EE10E0F80180818B7F80837C
S11309B088818160888342E060E080E0BFDEE1EE10
S11309C0F0E080818E7F8083E2EEF0E080818160C0
S11309D08083808188608083F80180818E7F80831A
S11309E0888180618883DF91CF911F910F91089551
S11309F0E8EDF0E080818F7E8083E7EDF0E0808198
S1130A008160808384E082BF81E080934101B0CF24
S1130A100895E8EDF0E080818E7F80831092E200FB
S1130A2008951092DA001092E10008951F920F9237
S1130A300FB60F9211242F933F934F935F936F93AD
S1130A407F938F939F93AF93BF93EF93FF93809183
S1130A50E10082FF0AC08091E20082FF06C0E1EE5D
S1130A60F0E080818B7F80836ED28091DA0080FFFA
S1130A701DC08091D80080FF19C0EAEDF0E08081AC
S1130A808E7F80838091D90080FF0CC080E189BD76
S1130A9082E189BD09B400FEFDCF81E0809342016B
S1130AA013D304C019BC109242010FD38091E1000A
S1130AB080FF16C08091E20080FF12C0E2EEF0E0F9
S1130AC080818E7F8083808180618083E8EDF0E087
S1130AD080818062808319BC85E08093420133D297
S1130AE08091E10084FF2FC08091E20084FF2BC03D
S1130AF080E189BD82E189BD09B400FEFDCFE8ED46
S1130B00F0E080818F7D8083E1EEF0E080818F7E54
S1130B108083E2EEF0E080818F7E8083808181603B
S1130B20808380913E01882321F084E080934201F8
S1130B3009C08091E300882314F081E001C083E0C0
S1130B408093420100D28091E10083FF23C0809111
S1130B50E20083FF1FC0E1EEF0E08081877F8083A5
S1130B6082E08093420110923E0180818E7F8083D7
S1130B70E2EEF0E080818E7F8083808180618083DB
S1130B8042E060E080E0DADDE0EFF0E08081886060
S1130B908083D9D1FF91EF91BF91AF919F918F91B4
S1130BA07F916F915F914F913F912F910F900FBE65
S1130BB00F901F9018951F920F920FB60F92112449
S1130BC0EF92FF920F931F932F933F934F935F9353
S1130BD06F937F938F939F93AF93BF93CF93DF9341
S1130BE0EF93FF93C091E900CF708091EC00D82F70
S1130BF0D17080FDD0E80F2EF9EEEF2EF12CF02D00
S1130C00F701108200EF10E0F8018081877F808374
S1130C10789421D0F7011082F80180818860808364
S1130C20CD2BCF70F701C083FF91EF91DF91CF916E
S1130C30BF91AF919F918F917F916F915F914F91F0
S1130C403F912F911F910F91FF90EF900F900FBE46
S1130C500F901F9018950F931F93CF93DF93CDB7E9
S1130C60DEB7AA970FB6F894DEBF0FBECDBFE3E49C
S1130C70F1E02BE431E0A1EFB0E08C9181932E17E9
S1130C803F07D9F727D28091E80083FF37C1E3E417
S1130C90F1E090818181853009F47FC030F48130A6
S1130CA0C9F168F08330B1F129C1883009F4F1C089
S1130CB0893009F4FEC0863009F020C191C0903813
S1130CC021F0923809F01AC108C080913F01909137
S1130CD04001992389F082600FC0809147018F7091
S1130CE0873008F00BC1E9EEF0E080838091EB00DF
S1130CF085FB882780F91082E8EEF0E09081977FE9
S1130D009083A1EFB0E08C931C9280818E778083D6
S1130D10CADDF4C0992309F400C1923009F0EEC091
S1130D2001C191E0833009F090E0909340012CC020
S1130D30809147018F709FEF980F963008F0DEC0C6
S1130D408093E9009091EB0090FF1EC090914401C4
S1130D50933031F4EBEEF0E080818062808314C044
S1130D60EBEEF0E090819061908321E030E0A90106
S1130D7002C0440F551F8A95E2F7AAEEB0E04C93E7
S1130D801C928081886080831092E900E8EEF0E094
S1130D908081877F808387DDB1C09111AFC01091BE
S1130DA045011F77E3EEF0E080818078812B80831A
S1130DB0E8EEF0E08081877F808375DDE8EEF0E087
S1130DC0808180FFFDCFE3EEF0E080818068808346
S1130DD0111102C082E001C083E0809342018EC001
S1130DE09058923008F08AC0809145019091460154
S1130DF08C3D53E0950799F583E08A838AE28983E1
S1130E005FB7F894DE01139620E03EE041E2E32F61
S1130E10F0E040935700849120FF03C082958F70C7
S1130E203F5F8F708A3018F090E0C79602C090E060
S1130E30C0968D939D932F5F243149F75FBF08EED1
S1130E4010E0F8018081877F80836AE270E0CE0140
S1130E5001966BDBF80180818B7780834FC06091B2
S1130E60470170914801AE014F5F5F4F82D9BC01C9
S1130E70892B09F443C008EE10E0F8019081977FB4
S1130E80908389819A81D5DBF80180818B77808377
S1130E9035C0903899F5E8EEF0E08081877F808353
S1130EA080913E018093F10080818E778083FBDC0A
S1130EB025C0911123C08091450190914601992745
S1130EC00297E4F4E8EEF0E08081877F80838091EC
S1130ED0450180933E01E7DC80913E01882321F0A7
S1130EE084E08093420109C08091E300882314F0D8
S1130EF081E001C084E080934201E8D08091E80061
S1130F0083FF16C0E8EEF0E08081877F8083EBEEFC
S1130F10F0E08081806280830BC090914501913024
S1130F2069F7FFCE80914501882309F401CF2CCFC6
S1130F30AA960FB6F894DEBF0FBECDBFDF91CF9156
S1130F401F910F9108950895CF93809142018823B2
S1130F5099F0C091E900CF708091EC00982F9170C6
S1130F6080FD90E8C92B1092E9008091E80083FD90
S1130F7072DECF70C093E900CF910895589A089516
S1130F8084B7877F84BF0FB6F894A89580916000DA
S1130F90886180936000109260000FBE90E080E84A
S1130FA00FB6F89480936100909361000FBE20CD3A
S1130FB00895CF93DF93CDB7DEB7CE5FD1400FB6A0
S1130FC0F894DEBF0FBECDBFDBDF519A509A8AB1D1
S1130FD08AB9229A219A82E58CBD8DB58EB5CEDF71
S1130FE060E371E086E091E0ECD9789485E090E0EC
S1130FF075D06C018E010F5F1F4F0F2EF1E2AF2EE3
S1131000F1E0BF2EF02D7E01F3940F2EF2E16F2E4E
S1131010F02D0F2EF5E17F2EF02D86E091E089D999
S1131020181619060CF04BC0F80180831182813424
S1131030910509F441C08234910519F00F5F1F4FE7
S11310403EC044E050E0BE016F5F7F4FC60184D1D3
S1131050C60165D1182F092F44E050E0BE016B5F33
S11310607F4FC60179D1C6015AD1982E892E44E00A
S113107050E0BE01675F7F4FC6016ED1C6014FD1FC
S11310809F938F938F929F920F931F93BF92AF92D0
S1131090FF92EF92A1D1F70166867786108A60E30A
S11310A071E0C70170D10FB6F894DEBF0FBECDBF9B
S11310B08E010F5F1F4F03C08E010F5F1F4F86E02D
S11310C091E01FD941DFA9CF0895089586E091E00A
S11310D08CC8089586E091E088C908950F931F9302
S11310E0CF93DF938230910510F482E090E0E09199
S11310F04D01F0914E0120E030E0A0E0B0E03097E7
S113110019F1408151810281138148175907C8F0B0
S11311108417950769F4109731F012960C9312977F
S113112013961C9327C000934D0110934E0122C0C7
S11311302115310519F04217530718F49A01BD011E
S1131140EF01DF01F801DBCF21153105F9F0281B90
S1131150390B2430310580F48A819B816115710536
S113116021F0FB019383828304C090934E0180930A
S11311704D01FE01329644C0FE01E20FF31F81933C
S1131180919322503109398328833AC020914B012D
S113119030914C01232B41F4209102013091030141
S11311A030934C0120934B012091000130910101B7
S11311B02115310541F42DB73EB7409104015091FA
S11311C00501241B350BE0914B01F0914C01E21712
S11311D0F307A0F42E1B3F0B2817390778F0AC0156
S11311E04E5F5F4F2417350748F04E0F5F1F509333
S11311F04C0140934B018193919302C0E0E0F0E0F5
S1131200CF01DF91CF911F910F910895CF93DF9379
S1131210009709F481C0FC01329713821282A091D5
S11312204D01B0914E01109781F420813181820FDC
S1131230931F20914B0130914C012817390751F528
S1131240F0934C01E0934B0167C0ED0120E030E0E6
S1131250CE17DF0740F44A815B819E014115510599
S1131260F1F0EA01F5CFD383C28340815181840F29
S1131270951FC817D90759F488819981840F951F40
S11312800296918380838A819B8193838283211533
S1131290310529F4F0934E01E0934D013DC0E9017D
S11312A0FB83EA8349915991C40FD51FEC17FD07BD
S11312B061F480819181840F951F0296E9019983DD
S11312C08883828193819B838A83E0E0F0E0129695
S11312D08D919C911397009719F0FD01DC01F7CFD4
S11312E08D919C9111979D012E5F3F4F820F931F0B
S11312F020914B0130914C012817390769F430973C
S113130029F410924E0110924D0102C013821282F0
S1131310B0934C01A0934B01DF91CF910895FC0150
S113132088279927E89421912032E9F3293010F095
S11313302E30C8F32B3239F02D3231F4689403C0C7
S11313401AD0820F911D219120532A30C8F31EF424
S1131350909581959F4F0895FB01DC0141505040C9
S113136048F001900D920020C9F701C01D92415030
S11313705040E0F708957AE0979F902D879F802D45
S1131380910D11240895EF92FF920F931F93CF9321
S1131390DF93DB0113962C9121FF18C08B017C0194
S11313A0D0E0C0E0F70181917F01882361F0D8018A
S11313B01896ED91FC911997B8010995892B91F331
S11313C0DFEFCFEFEFCF8D2F9C2F02C08FEF9FEF7A
S11313D0CDB7DEB7E6E0C9C2AEE0B0E0E1EFF9E0D8
S11313E0AAC20D891E8986E08C831A8309838FEF34
S11313F09FE79E838D83AE01475E5F4F6F89788D33
S1131400CE01019608D0EF81F885E00FF11F10821C
S11314102E96E4E0ACC2ABE0B0E0E0E1FAE07DC2DD
S11314206C017B018A01FC0117821682838181FF92
S1131430BFC1CE0101963C01F6019381F70193FDF2
S1131440859193FF81917F01882309F4ADC1853291
S113145039F493FD859193FF81917F01853221F4C5
S1131460B60190E0C0D1E8CF912C212C312CFFE1C2
S1131470F315D8F08B3279F038F4803279F0833276
S1131480A1F4232D20611DC08D3261F0803369F4F5
S1131490232D216016C0832D8260382EE32DE46055
S11314A03E2E2AC0F32DF8601DC037FC2DC020ED60
S11314B0280F2A3040F08E32B9F436FC75C1232D42
S11314C02064322E19C036FE06C08AE0989E200D94
S11314D01124922E11C0EAE02E9E200D1124222EFA
S11314E0F32DF0623F2E08C08C3621F4832D8068E2
S11314F0382E02C0883641F4F70193FD859193FF9D
S113150081917F018111B3CF982F9F7D95549330A2
S113151028F40C5F1F4F9FE399830DC0833631F08D
S1131520833771F0833509F055C020C0F8018081FC
S113153089830E5F1F4F88248394912C530112C01A
S11315402801F2E04F0E511CF801A080B18036FE54
S113155003C0692D70E002C06FEF7FEFC50138D181
S11315604C018201F32DFF773F2E15C0280122E0A4
S1131570420E511CF801A080B18036FE03C0692DD3
S113158070E002C06FEF7FEFC50117D14C01F32D5E
S1131590F0683F2E820133FC19C0822D90E088163A
S11315A09906A0F4B60180E290E01DD12A94F5CF0B
S11315B0F50137FC859137FE81915F01B60190E01A
S11315C012D121102A9421E0821A910881149104E5
S11315D079F7E1C0843611F0893639F5F80137FE20
S11315E007C060817181828193810C5F1F4F08C0A5
S11315F060817181072E000C880B990B0E5F1F4FC1
S1131600F32DFF763F2E97FF09C090958095709536
S113161061957F4F8F4F9F4FF0683F2E2AE030E057
S1131620A3011DD1882E861844C0853731F4232D9B
S11316302F7EB22E2AE030E025C0932D997FB92E5B
S11316408F36C1F018F4883579F0AEC0803719F0C0
S1131650883721F0A9C0E92FE061BE2EB4FE0DC089
S1131660FB2DF460BF2E09C034FE0AC0292F26606A
S1131670B22E06C028E030E005C020E130E002C010
S113168020E132E0F801B7FE07C0608171818281F8
S113169093810C5F1F4F06C06081718180E090E0F0
S11316A00E5F1F4FA301DBD0882E8618FB2DFF771A
S11316B03F2E36FE0DC0232D2E7FA22E891458F402
S11316C034FE0BC032FC09C0832D8E7EA82E05C0CB
S11316D0B82CA32C03C0B82C01C0B92CA4FE0FC095
S11316E0FE01E80DF11D8081803321F49A2D997E4D
S11316F0A92E09C0A2FE06C0B394B39404C08A2DD7
S1131700867809F0B394A3FC10C0A0FE06C0B214FE
S113171080F4280C922C9B180DC0B21458F4B60116
S113172080E290E060D0B394F8CFB21418F42B1890
S113173002C0982C212CA4FE0FC0B60180E390E0D7
S113174052D0A2FE16C0A1FC03C088E790E002C0FC
S113175088E590E0B6010CC08A2D867851F0A1FE90
S113176002C08BE201C080E2A7FC8DE2B60190E0EA
S11317703AD0891430F4B60180E390E034D09A94DE
S1131780F8CF8A94F301E80DF11D8081B60190E051
S11317902AD08110F6CF222009F44ECEB60180E281
S11317A090E021D02A94F7CFF6018681978102C078
S11317B08FEF9FEF2B96E2E1CCC0FC0105906150C6
S11317C070400110D8F7809590958E0F9F1F089553
S11317D0FC016150704001900110D8F780959095FC
S11317E08E0F9F1F08950F931F93CF93DF93FB01D9
S11317F0238121FD03C08FEF9FEF2CC022FF16C071
S113180046815781248135814217530744F4A081CE
S1131810B1819D012F5F3F4F318320838C932681BB
S113182037812F5F3F4F3783268314C08B01EC0130
S1131830FB010084F185E02D0995892BE1F6D8019F
S113184016968D919C911797019617969C938E935B
S11318501697CE01DF91CF911F910F910895FA0150
S1131860AA27283051F1203181F1E8946F936E7FDB
S11318706E5F7F4F8F4F9F4FAF4FB1E03ED0B4E0CC
S11318803CD0670F781F891F9A1FA11D680F791F0D
S11318908A1F911DA11D6A0F711D811D911DA11D1E
S11318A020D009F468943F912AE0269F112430192E
S11318B0305D3193DEF6CF010895462F4770405DC9
S11318C04193B3E00FD0C9F7F6CF462F4F70405D78
S11318D04A3318F0495D31FD4052419302D0A9F7D3
S11318E0EACFB4E0A6959795879577956795BA95CD
S11318F0C9F700976105710508959B01AC010A2E93
S113190006945795479537952795BA95C9F7620F69
S1131910731F841F951FA01D08952F923F924F920D
S11319205F926F927F928F929F92AF92BF92CF926B
S1131930DF92EF92FF920F931F93CF93DF93CDB774
S1131940DEB7CA1BDB0B0FB6F894DEBF0FBECDBFEC
S113195009942A88398848885F846E847D848C84BD
S11319609B84AA84B984C884DF80EE80FD800C81C6
S11319701B81AA81B981CE0FD11D0FB6F894DEBFA9
S10F19800FBECDBFED010895F894FFCF19
S113198C00004F012000008310000001041000002F
S113199C01820800000100000000000000000000AB
S11319AC00253034752D253034752D2530347500D3
S9030000FC
